:020000040800F2
:100000000050002031010008CD0100082502000841
:10001000CD010008CD010008CD010008000000005E
:10002000000000000000000000000000CD010008FA
:10003000CD01000800000000CD010008CD0100083E
:10004000CD010008CD010008CD010008CD01000858
:10005000CD010008CD010008CD010008CD01000848
:10006000CD010008CD010008CD010008CD01000838
:10007000CD010008CD010008CD010008CD01000828
:10008000CD010008CD010008CD010008CD01000818
:10009000CD010008CD010008CD010008CD01000808
:1000A000CD010008CD010008CD010008CD010008F8
:1000B000CD010008CD010008CD010008CD010008E8
:1000C000CD010008CD010008CD010008CD010008D8
:1000D000CD010008CD010008CD010008CD010008C8
:1000E000CD010008CD01000800000000CD0100088E
:1000F000CD010008CD010008CD010008CD010008A8
:10010000CD010008CD010008CD010008CD01000897
:10011000CD010008CD010008CD010008CD01000887
:10012000CD010008CD010008CD010008CD01000877
:1001300080B56F4600F04BF800F04AF800F054F834
:1001400000F008F8FEDED4D4014800F062B800BF29
:1001500040420F0080B56F4600F002F8FEDED4D4B6
:1001600080B56F4600F05BF800F0010500F04DF837
:100170000D4804780CB9012101700DB900F047F861
:1001800074B90A4810210A4C4FF40055016009481F
:100190002060E560FFF7D8FF2561FFF7D5FFF8E79E
:1001A00000F00FF8FEDE00BF000000201810024033
:1001B000041001404444344480B56F4600F024F8F4
:1001C000FEDE80B56F46FFF7F7FFFEDEFEE7704705
:1001D000034800220349884228BF704704C0FAE759
:1001E000000000200400002004480549054A904210
:1001F00028BF704708C908C0F9E700BF0000002009
:100200003C02000800000020FEE772B6704762B6AC
:100210007047012101EB50000138FDD17047EFF329
:100220001080704770460421084202D1EFF3088025
:0C02300002E0EFF30980FFE7FEE7D4D402
:0400000508000131BD
:00000001FF
