:020000040800F2
:100000000050002031010008510400081B2800089E
:1000100051040008510400085104000800000000C9
:100020000000000000000000000000005104000873
:1000300051040008000000005104000851040008A9
:10004000510400085104000851040008510400083C
:10005000510400085104000851040008510400082C
:10006000510400085104000851040008510400081C
:10007000510400085104000851040008510400080C
:100080005104000851040008510400082F0D000815
:100090008B1900085104000851040008510400089D
:1000A00051040008510400085104000851040008DC
:1000B00051040008510400085104000851040008CC
:1000C00051040008510400085104000851040008BC
:1000D00051040008510400085104000851040008AC
:1000E00051040008510400080000000051040008F9
:1000F000510400085104000851040008510400088C
:10010000510400085104000851040008510400087B
:10011000510400085104000851040008510400086B
:10012000510400085104000851040008510400085B
:1001300080B56F4600F08DF900F06EF900F078F9A7
:1001400000F0DBFBFEDED0B502AF024601F07F001F
:10015000072818D800EB8000CCB202EB8000407C6E
:1001600001F058FE61B2B1F1FF3F06DD00F44050EE
:10017000B0F5805F05D10120D0BD00F0300010281F
:10018000F9D00020D0BD01F0EEFFFEDEF0B503AFE8
:100190004DF8048D16460D46044600F0CDF8804615
:1001A00001F0F2FF20462946FFF7CDFFB0421AD0FA
:1001B00005F07F00072820D800EB800069B204EB2F
:1001C0008000407C1EB1002908D4012103E0B1F178
:1001D000FF3F05DD032101F0CDFD04E0012100E03A
:1001E000022101F0EBFDB8F1000F5DF8048B0CBFAC
:1001F000BDE8F040F0BD01F0C9BF01F0B4FFFEDE84
:10020000F0B503AF4DF804BD84B003F07F040823BC
:10021000002A14BF631C012404EB84053E7AD7F83E
:100220000CC04FEA016E00EB850511359C4217D2D8
:10023000072C76D815F8011C042902D105F8016CA9
:1002400001E0B14209D1BEF1000F03D055F8091CFD
:1002500019B90AE055F8111C49B301341435E5E722
:100260000324002A18BF052444E030491FFA8CF209
:1002700001321E310A4000F1A00101A800F0A6FAE7
:100280009DF80400A0BB2A4864F07F04DDE9021E4B
:100290002B78284A084440081E019051002045F858
:1002A000091C42EA031145F805EC486023E01F49A8
:1002B0001FFA8CF23F2A07D201321E314FF47C43E1
:1002C00003EA42260A400BE002F11F0303EA01029F
:1002D0004FF4F84101EB431101F4F84101F50046F8
:1002E00000F1A00101A800F071FA9DF8040038B1F6
:1002F0009DF805400120214604B05DF804BBF0BD27
:100300002A780C4BDDE9020143EA0212084B034450
:100310005B08936045F8110C002045F80D1CD66071
:10032000E9E7204601F01FFFFEDE00BFE0FF01000D
:1003300000A0FFBF0060004080B56F4601F02EFFB7
:1003400000F0010080BD80B56F4600F001F8FEDED0
:1003500080B56F4600F07EF8FEDE80B56F4600F097
:1003600001F8FEDE80B56F4600F001F8FEDE80B5D4
:100370006F4600F001F8FEDE80B56F46FFF7E8FF3C
:10038000FEDE80B56F4600F001F8FEDE80B56F46F8
:1003900000F001F8FEDE80B56F4600F001F8FEDEE9
:1003A00080B56F46FFF7D4FFFEDE80B56F46FFF7DE
:1003B000CFFFFEDE80B56F46FFF7CAFFFEDE80B5D9
:1003C0006F4600F001F8FEDE80B56F4600F001F8E0
:1003D000FEDE80B56F4600F001F8FEDE80B56F46A8
:1003E000FFF7B6FFFEDED1E906010E22CB6842F62A
:1003F0003001C0F60001184780B56F46FFF7A8FF2F
:10040000FEDE80B56F46FFF7A3FFFEDE80B56F46C8
:10041000FFF79EFFFEDED4D4034800220349884242
:1004200028BF704704C0FAE72C020020EC0200202D
:1004300004480549054A904228BF704708C908C0CA
:10044000F9E700BF00000020442A00082C02002029
:10045000FEE77047FEE77047D0B502AF04460920BB
:100460002085204600F080F8A1790122FFF78EFE5A
:1004700004F10C0000F068F8A17C0122BDE8D04036
:10048000FFF784BE0B468021002200F000B880B543
:100490006F46934208D38B429EBF1044991A80BD89
:1004A0001846FFF76EFFFEDE10461946FFF787FF7E
:1004B000FEDEF0B503AF4DF804BD82B0D0E90651C1
:1004C0000446D0E90823002D284608BF04F1340073
:1004D000268A9B1AB34288BF33461344002D08BFB7
:1004E0008021FFF7D4FF0B4604F10C010246684659
:1004F00000F05AF89DF8000078B90198D4E9081284
:1005000001442162914208D300210322C4E906116B
:10051000218A884208BF0222228502B001F016BE5D
:10052000018D01F00D01042908BFFFF795BF704749
:10053000012389B203850023914238BF0A46C0E9EE
:100540000832FFF7B6BFD4D480B56F4600680068A4
:10055000BFF35F8F00B180BD02482221FFF725FF66
:10056000FEDE00BF7C28000880B56F46006800688A
:10057000BFF35F8F00B180BD02482221FFF715FF56
:10058000FEDE00BF7C280008D0B502AF054C04F1A8
:100590002C00FFF7E9FF94F832100022BDE8D040AC
:1005A000FFF7F4BD48010020F0B503AF2DE90007C7
:1005B00004460846994616460D46FFF7C5FFA97939
:1005C0004AB2B2F1FF3F03DD40F20150208033E038
:1005D00001F07F01082962D201EB810100EB810A61
:1005E00001F004FC804601F0CFFD504650F8081F92
:1005F000002908BF084601F001FC05464068B9EB38
:10060000400F01D9022011E01AF8110F01F0C8FBC8
:100610000068182101EA5000224980F0100021FAF8
:1006200000F0C0B208B103280FD100206070012093
:10063000B8F1000F207002D0BDE80007F0BDBDE8A2
:100640000007BDE8F04001F0A1BDD5E90021002080
:100650004B46012B08D981421DD036F81050023B81
:1006600042F820500130F4E705D1814214D916F840
:10067000101042F820109AF800101FFA89F00A4A68
:100680000901505003219AF8000001F097FBC4F8CB
:1006900004900020CCE70846FFF755FEFEDE084632
:1006A0000821F9E70203000104600040F0B503AF40
:1006B0002DE9800F834608469A4691460C46FFF77F
:1006C00053FF0546A07941B2002932D4082875D2DB
:1006D00000EB800605EB860401F088FB804601F004
:1006E00053FD55F82600002818BF204601F086FB70
:1006F000064614F8110F01F053FB00681821314A27
:1007000001EA502181F0100122FA01F1090601D01D
:10071000000415D400208BF801000120B8F1000F6F
:100720008BF8000009D1BDE8080FBDE8F04001F0EA
:100730002DBD40F20150ABF80000BDE8080FF0BD40
:100740002078CDF8008001F02BFB01684FF2F00219
:1007500091431D4A803101602078010152F80180E7
:100760006FF39F28D04503D9DDF800800220D2E73F
:10077000D6E90031A8F101054FEA5804002294425D
:1007800008D0914216D053F82260023D29F8126039
:100790000132F4E72DB9914212D953F8221009F829
:1007A0001210032101F0E6FACBF804800020DDF8F6
:1007B0000080B3E70846FFF7C6FDFEDE0821FAE732
:1007C0001046F8E7020300010C600040D0B502AF0C
:1007D00088B012F0010301931AD10023B3EB522F1A
:1007E00020D10B689C18B4F5007F03D90421417017
:1007F00001210AE00C6051086FF0020202EA430294
:100800000B4B1A44C0E901210021017008B0D0BD92
:1008100002AC1821204601F0C8FC01A8214600F0D6
:100820000BF8FEDE03482C21FFF7BFFDFEDE00BF04
:10083000006000409E28000880B56F4688B002AA7C
:1008400091E87850104680E8785001A96846FFF793
:10085000B1FDFEDEF0B503AF4DF804BD0E4E02460D
:10086000B6F85400042802D10C46802901D901F0C1
:100870006DBC06F1600021462346B6F85A5001F0DF
:1008800089FB06F12C00294622465DF804BBBDE831
:10089000F040FFF74DBE00BF480100200068416AEC
:1008A0003430FFF7EFBDD4D4DCB504AF0446008D7F
:1008B000062808D1044A04F10C0168460023FFF71A
:1008C00073FE08202085DCBD40280008DCB504AF9D
:1008D0000A7822B9043191E81C001CC0DCBD044830
:1008E000A7F10902034B0F21FFF786FDFEDE00BFD3
:1008F000CA280008DC280008704780B56F4600F061
:1009000001F8FEDE80B56F46DEB000F009FA01F0B6
:1009100009FC00F005FA054601F036FCDFF8A88373
:1009200098F8016016B9012088F801000DB901F0AE
:100930002DFC16B9012088F801000CB901F026FC45
:10094000002E40F0AF8100F0EBF901F0EBFB98F8DE
:10095000005015B9012088F800000CB901F016FC10
:10096000002D40F09F81DA483121DA4D016028687E
:1009700040F48030286028688003FCD5686820F443
:10098000741000F588106860286840F08070286056
:1009900028688001FCD568680322CF49D04C084004
:1009A000CE4908436860A86940F00400A861E8687F
:1009B00040F00400E860E86820F00400E8604FF0D0
:1009C0008050E060216862F313412160E060C54817
:1009D00001F0DEFB2068042666F31340206001F07E
:1009E000DDFB01F09FFBE86940F40000E861286945
:1009F00040F400002861286920F400002861E00725
:100A000008BF01F0C3FB05A8002110300022082A0E
:100A100008D04270013240E9041140E90211067029
:100A20001430F4E7DFF8C0A205A9A0220AF10800FB
:100A300001F055FC4FF0000855464FF4806045F832
:100A4000048FCAF8B80001204FF0400BCAF800002C
:100A50002846CAE92AB8CAE92C8801F067FA049046
:100A6000FF2008210322CDE900212946029005AC90
:100A70000022204601F0D4F95BA82146FFF726FFAB
:100A8000284601F053FA4FF002090390CDE9009B8C
:100A900057AE29460022304601F007FA9DF85C0166
:100AA000002840F00981301D04F10C0190E82C0071
:100AB0002CC10022CDE9009B0AF104090DF5AE7BA3
:100AC000CDF808804946584601F0AAF904F118000B
:100AD0005946FFF7FBFE049821468DF840005BA8BD
:100AE00004905BA890E82C004FF400602CC14FF4F8
:100AF000A4722146ADF83C004FF4FA500E900398D2
:100B00008DF841007B48ADF842808DF83E80CDF8ED
:100B10005481CDE93388CDE9118801F0E0FBDAF8A2
:100B20000000002800F0BE8008250026CDE9006501
:100B300005AC4946012220460023D04601F0B5F914
:100B40009DF81400002840F0B280201D5BA990E8B9
:100B50001C001CC101224946CDE900658023029694
:100B600005AC204601F05CF99DF81400002840F027
:100B70009E80201D594690E81C0008F1B4001CC15D
:100B800001F0C2F9484601F07DF98A4600F1A00162
:100B900000230446002294468C420DD01A46236856
:100BA00026462BB9B568531C06F11404002DF3D06A
:100BB000531C06F11404EEE74646C0F8A4C0FFF744
:100BC000BBFB054601F0E0FA4D4C206820F0020026
:100BD0002060482001F0DCFA20694FF6F8714FF0F0
:100BE000000888432061206840F41C4020F0010088
:100BF00020606068C4F804800DB901F0C7FADAF823
:100C000000000130CAF80000484601F03BF9BFF38C
:100C10005F8FC6F8B000BFF35F8F3A4D049E044665
:100C200005F12C000DF1140996E80E000EC005F137
:100C300038009BE80E000EC0802109F10A0001F087
:100C4000EAFD05F14400122101F0AFFA4FF04850DF
:100C5000314AC5F826004FF0040C2B480C21C5F88A
:100C60002200102028840B2328482A4EDFF8A0E019
:100C7000C5E906C005F15600C5E900428A22C5E96A
:100C800002164946C5E9043E01F08DFA23484FF4A7
:100C90000021C5F8E08001604FF48011016001F08F
:100CA00080FAFCE709482B21FFF77FFBFEDE1248A4
:100CB00057AA124B202103E00C4805AA0C4B0F2128
:100CC000FFF79AFBFEDE00BFE8020020842900083F
:100CD00000200240001002400C00BFFF72DC400008
:100CE00004080140005307002C020020CA28000815
:100CF000DC280008000000204C2800086C280008B0
:100D0000405C00404801002002000008C016DD27BA
:100D100048280008342900082829000800E100E0DC
:100D200080B56F4601F03AFA00F0010080BD00F096
:100D300001B8D4D4F0B503AF2DE9000F97B0DFF8B8
:100D400024BCBBF854000A281EBFDFF81C1CD1F8D5
:100D50004001032805D1DFF82C0C2B21FFF725FBE0
:100D6000FEDEDFF8080CDBF80040CDE90510FFF7E8
:100D7000E3FA814601F008FACB4E7068C10408D44A
:100D800041050FD4010511D4000400F1BF800025F6
:100D900010E04EF6FF7004257060306820F0080007
:100DA000306007E04FF6FF30012502E04FF2FF70A0
:100DB00003257060B9F1000F08BF01F0E7F99BF857
:100DC000E000032813D1002D00F0A782032D00F0CE
:100DD000A482FFF7B1FA01F0A5F9306820F00C0009
:100DE00030600CB901F0D2F900208BF8E000DFE8A8
:100DF00015F0940205006E0047009402DBF800B085
:100E0000FFF79AFA049001F0BFF9706832460026A5
:100E1000DFF86CAB56608021D0684FF2FF795D46F9
:100E200061F30700D060A02E39D095F81080B8F19A
:100E3000040F22D00BEB0604607C00F0B1FF1AF81F
:100E40000820016802F0030221EA090141EA422177
:100E5000627C02F00F02114401605BF80610607CB6
:100E6000002918BF032100F085FFA168607C0029DC
:100E700018BF0121490000F0A1FF14351436D2E754
:100E8000FFF75AFA01F04EF9306840F00C0030607C
:100E90000CB901F07BF903208BF8E0003DE20498E7
:100EA00008B901F073F9DFF8BC1A0020082481F8B2
:100EB000E300A1F8E000A1F8540005AD002C00F01B
:100EC0002C82F5E8020189698847083CF6E7039817
:100ED000049940EA080040EA01095FEAC97000F09D
:100EE0003A815FEAC87000F08780BBF8540001388F
:100EF000072800F27D80DFE800F004505D7B7B7BFB
:100F00007B630BF12C00FFF7D4FA75E0D4F8A41042
:100F1000481C80F01385082980F0148501EB8100BE
:100F2000142111344FF0010B01EB800600200490D6
:100F300000204FF2F00A4FF00008039046B32078EB
:100F400000F068FF010409D50105049948BF41EA92
:100F50000B010491039941EA0B010391000612D59C
:100F6000FFF7EAF9054601F00FF9207800F018FFC5
:100F7000016848EA0B0821EA0A0101F50041016015
:100F80000DB901F003F9143E14344FEA4B0BD5E7C9
:100F9000DFF8D0B90225444E0CE7DFF8D4290BF175
:100FA00038010FA80023FFF7FFFA9DF83C0018BB9B
:100FB000032002E0FFF7E8FA0520ABF854001BE03D
:100FC0009BF8E3500020ABF85400ADB1FFF7B4F943
:100FD00001F0A8F8F06865F30600F0600CB901F0C4
:100FE000D5F801208BF8E00000208BF8E30003E047
:100FF0000BF12C00FFF730FA0498C00741D1039899
:10100000C00700F0A480BBF85400052800F08780DA
:10101000072840F09080DBF84C00812880F096840F
:101020009BF85F100BF12C040291C0F180039BF838
:101030005E1000919BF85D100191211801F13402BE
:101040009BF85C50BBF85A602146DBF856A00FA80D
:10105000FFF72CFB9DF83C0000BBDBE91301AE461B
:10106000109A029C1044CBF84C008842DDE90051F4
:101070006DD30620D4460429ABF8540067D0F2465D
:1010800062E10BF12C040BF160050FA880232146CF
:101090002A46FFF70BFB9DF83C0038B19DF83D0058
:1010A000002851D153E000BF405C00401099284611
:1010B000FFF7E8F9082947D101784278029201F058
:1010C0001F05042201F0800A042D28BF1546C6889A
:1010D000D0F802000090C1F341100190FFF754FADC
:1010E000BAF1000F40F01D810299002EDDE900AE3B
:1010F00000F04E81802E27D800208BF85F1007214A
:101100008BF85E508BF85DE08BF85C00ABF85A60B2
:10111000CBF856A0ABF85410CBE9130617E0DFF874
:1011200050280BF12C010FA800230024FFF7BEFA72
:10113000ABF854400BE00BF12C04DFF834280FA877
:1011400000232146FFF7B2FA2046FFF785F94FF654
:10115000FE7009EA00095FEA09403DD04FF0020A3B
:101160004FF0010BBBF1100F36D0049800EA0A00D3
:10117000000409D005AC0825ADB1F4E802018A6A83
:1011800059469047083DF7E7039800EA0A00000433
:1011900009D005AC082535B1F4E80201CA6A594600
:1011A0009047083DF7E70AEA080000040BD06BF00F
:1011B0007F0505AC082636B1F4E802010A6B294622
:1011C0009047083EF7E729EA0A090BF1010B4FEABD
:1011D0004A0A5FEA0940C5D1DFF88C6705AD0824EB
:1011E0002CB1F5E80201C9698847083CF8E70020FE
:1011F000348ACDE90A00706BC0F18002A2420AD2A3
:10120000316B0A44A24224D306F1300000F0EAFB1D
:10121000706BC0F18002A242C0F08683011906F112
:101220003802802300F0BAFB02460B4606F10C019F
:101230000FA8FFF73BFA9DF83C0028B19DF83D0050
:1012400000286AD1002000E01098D6E90C12104462
:101250007063884261D0401A0822082828BF1046CF
:10126000421806F1380000F092FB0AAD81460020DA
:1012700008232A460C464FF0000800F08FFB4A4630
:10128000234600F087FE306BB8F1000F2044306336
:1012900043D1002C41D0092C80F05383002084429C
:1012A00009D0295CA1F161021A2A3CBF01F0DF01DB
:1012B00029540130F3E7D6F8BC00C0F18005A542FF
:1012C0000AD2D6F8B81039B106F1B80000F08AFB9E
:1012D000D6F8BC00C0F18005A54288BF2546C5B13F
:1012E000411906F1C002802300F058FB0AAA81468A
:1012F000884600202946234600F062FB02460B4642
:101300004846414600F046FED6F8BC002844C6F8E0
:10131000BC00DFF8540600F031FC17B0BDE8000F48
:10132000F0BD029C04220199DDF800C08BF85F40FB
:101330008BF85E508BF85D108BF85CA0ABF85A60B0
:10134000CBF856C0ABF85420BAF1000F29D0BAF14F
:10135000800F7FF4FCAE80208DF824508DF825405E
:1013600008258DF823108DF82200ADF82060CDF807
:101370001CC005AE07AC002D55D0F6E80201224690
:101380004B6A0BF12C01984700F0F0FEF3D0DEE63B
:10139000062000260C46D4467146ABF85400CBF824
:1013A000506000208DF844508DF8454008258DF898
:1013B00043108DF84200ADF84060CDF83CC005AE5A
:1013C0000FAC55B1F6E8020122460B6A0BF12C0175
:1013D000984700F0CBFEF4D0B9E69DF84300002812
:1013E00040F00F819DF844209DF84510BDF83C0069
:1013F000022A36D0012A42D0002A40F00981013960
:10140000082900F20581DFE811F0090003016500F9
:1014100003016C000301030103017300012840F084
:10142000F78000205AE09DF82300002840F0E98072
:101430009DF824109DF82500022926D0012930D0DE
:10144000002940F0DE8000285BD0062866D00828FE
:1014500040F0D7809BF8E0000238B0FA80F04009F5
:1014600024E0032927D0012908BF002840F0D080BC
:10147000BDF83E105C4654F82C0B002224E00B29EA
:1014800008BF002840F0C480B7E0002840F0B980D1
:10149000BDF81E10DBF8000001F08F01FEF753FECF
:1014A00035E060B30A2840F0AC8000208DF83C00A5
:1014B0000FA801212FE0002840F0AA805C46BDF86B
:1014C0003E1054F82C0B012201F08F01FEF75EFE56
:1014D000204694E0012840F09B8001208BF8E10039
:1014E0008BE0411E7F2980F093808BF8E30084E03D
:1014F00000287AD0012840F08B8002207BE0002079
:1015000005E09BF8E1009BF8E21041EA4000ADF8ED
:101510003C000FA80221FFF79DF972E0BDF81C40C6
:10152000200A012879D0022800F0D080032800F09A
:101530001C810F2840F0C381BBF85400042860D1FF
:101540000020DFF830248DF858000F211490032379
:1015500000F0EBFD04200C900120BBF85AA00B908A
:101560000FA80A9000F026FDC0B2082849D11099B2
:101570000529C0F0EF810F9A107901301071DDE973
:101580001010C51D8D423CD8884280F0E8810721AB
:101590001154421C10998A4280F0DE810F99102369
:1015A0008B54831C10998B4280F0D881C21C0F98F9
:1015B0000221C1542B46DDE90F0100F027FDDFF8C1
:1015C000B823042300F0E6FC119505AC0AAD08260B
:1015D000002E00F09281F4E802010A692946904742
:1015E000C0B2083E0828F3D00BE09BF8E0000028CA
:1015F00000F0658101208BF8E0000BF12C00FFF773
:1016000053F9BBF8540000F00D0004287FF49FAD9F
:101610000BF12C00FEF784FF99E5BBF85400042879
:10162000EFD10020DBF814208DF858005D461490AF
:10163000CDE911008020DBF80C10002A10900BF18E
:1016400060000F90BBF85A40DBF80400DBF8223052
:1016500018BF03228DF83620002918BF0121490048
:101660008DF83510002818BF01208DF83400BBF824
:1016700020008DF83200010ABBF81E008DF83310EF
:10168000010A8DF83000BBF81C008DF83110010AFA
:101690008DF82E004FF404708DF82F10ADF828004F
:1016A0000120CDF82A3001218DF837000FA80AAAB1
:1016B000102300F07FFCC0B20828A2D1119A802A22
:1016C00000F22D810BF12C00214634E1BBF85400CF
:1016D000042896D1BBF85A004FF0000A02908020EF
:1016E00010900BF160000F900420139001209BF8E4
:1016F000271012909BF826009BF828209BF8293091
:1017000000288DF858206FF03F02CDF850A0CDF89A
:1017100044A08DF82E3008BF6FF07F0242EA4110DE
:101720008DF82D004FF080708DF82CA00A900FA836
:101730000AAA0221072300F03DFCC0B208287FF46A
:1017400060AF05AE0FAD0824002C00F0BD80D6E9D7
:101750000001CA6829469047C0B208287FF451AFFB
:10176000CDF850A0083C0836EEE7E2B2032A1ED8B6
:1017700058460BF108010BF10400DFE802F00234D7
:10178000292FBBF8540004287FF43BAF0020BBF89E
:101790005A408DF8580003211490022300F0C5FC34
:1017A00040F20940ADF828000FA80AAA81E7BDF869
:1017B0001EA005AD0826002E00F08180F5E802018C
:1017C00052464B6921469847083E0028F3D00EE068
:1017D00058460BF110010BF10C0004E058460BF1D8
:1017E00018010BF114000068002868D00968BBF8E4
:1017F0005420042A7FF405AF4FF440720144ABF843
:101800006020022202910025BBF85A105B4601912C
:101810001DB14FF0000A064632E00299884264D0BA
:10182000064616F9013BD9B2B3F1FF3F25DC4478F7
:1018300001F01F03DF2904F03F0414D98578F02953
:1018400005F03F0545EA841411D3C17803F007037E
:1018500001F03F0141EA841141EA8341B1F5881F5B
:1018600043D0061D06E044EA8311861C02E044EAE8
:101870000331C61CB1F5803F16D28DB24FF0000A7D
:101880007F2A3FF6BEAE941C0BF1600080212346F8
:1018900000F0BCFBADF83C500FAA022300F07AFB2D
:1018A000554630462246B3E7A1F5803A4FF45840FA
:1018B000372140EA9A2061F39F2A85B2E0E70BF1D5
:1018C0002C00FEF72DFE9CE60FAC0222042313CC65
:1018D00000F09CFBADF828400AAA022300F05AFB56
:1018E000119A802A1BD8029904E0802A8BF8602084
:1018F00015D801990BF12C001DE00A9A00200B90DD
:10190000042313CA022200F081FBA7F15202022332
:1019100027F8524C00F03EFB119A802A08D90BF1AF
:101920002C00FEF799FD6CE614484521FFF716BA26
:101930000BF12C005146FEF7FBFD62E6FEF761FD60
:10194000FEDE20460821FEF71CFDFEDE8021FEF7AC
:1019500004FDFEDE042002E0104600E01846FEF71B
:10196000F2FCFEDE4801002000000020F428000800
:1019700040280008E0290008442800083F29000802
:1019800040280008842900087047FFF7D3B90346B0
:10199000084611461A46802300F012B880B56F46FB
:1019A00081420AD399429FBF0244091A104680BD62
:1019B00008461946FEF7E5FCFEDEFEF700FDFEDEFA
:1019C00080B56F4681420AD399429FBF0244091AEB
:1019D000104680BD08461946FEF7D3FCFEDEFEF732
:1019E000EEFCFEDEF0B503AF4DF804BD044650F842
:1019F000085B802D02D16668802505E00AD2666802
:101A00004119721B00F005FF711B0020C4E90001A1
:101A100000F09CBB28468021FEF795FCFEDE0020EE
:101A20000021704770477047082070477047D0B555
:101A300002AFD379012B07D1137A012B02BF90F8A3
:101A40002C3054889C4200D0D0BD537A212B04BF47
:101A50009288072A04D00846BDE8D040FEF760BD52
:101A60000A8D042AF0D1426A4A6390F8282081F84E
:101A7000382090F82A2081F83920CA8D90F8290062
:101A800081F83A00084611460722BDE8D040FEF72B
:101A90004FBDF0B503AF4DF804BD82B00546D07917
:101AA000CDE90012012804BF107A012802D002B04B
:101AB00000F04CBB0C4695F82C0051888142F6D1C1
:101AC000507AC0B320280BD022283CD11078C0F324
:101AD000400100F0010085F82F1085F82E002AE063
:101AE0006846FEF7DBFE06292DD96846FEF7D6FECE
:101AF000032938D9006868626846FEF7CFFE0529D9
:101B000029D300790026032828BF304685F828000D
:101B10006846FEF7C3FE05291FD94079052838BF5E
:101B20000646684685F82A60FEF7B8FE062916D9EB
:101B3000807985F82900204602B05DF804BBBDE835
:101B4000F040FEF7B1BE204602B05DF804BBBDE830
:101B5000F040FEF7E5BC042002E0052000E006208E
:101B6000FEF7F1FBFEDE0420FEF70BFCFEDE827FBB
:101B7000C9B28A4208BF00F001B87047F0B503AFA0
:101B80004DF804BD82B00446D0E92E10D4E95026A9
:101B9000022A18BF002688420ED14EB31F4A04F114
:101BA000180168460023FEF7FFFC9DF80000E0B92D
:101BB0000120C4F840012DE0228A092E88BF013A95
:101BC000401A92B2904238BF02460A4404F1C00063
:101BD000FFF7DDFE0D4604F11801024668462B466C
:101BE000FEF7E2FC9DF8000038B19DF8010012E01C
:101BF0000020C4F8400108200DE0701C218A012259
:101C00008D4208BF0222C4E95020D4F8B80028440D
:101C1000C4F8B800002000F090BA00BF40280008C7
:101C2000F0B503AF4DF804BD82B0054690F82C60C6
:101C3000087F0C4688B10020A7F1160207F8110CA6
:101C40000B214048062347F8150C204607F8166C70
:101C500000F0B0F9C0B208286ED120463146022209
:101C6000022300F0E5F9C1B2082965D1364A2046C1
:101C70002421032300F09EF9C0B208285CD1334A26
:101C800020462421022300F095F9C0B2082853D140
:101C90000620A7F1160207F8156C242107F8160C88
:101CA000204695F82D6000F04CFAC0B2082843D1C8
:101CB0000120A7F1160227F8160C2046242100F077
:101CC00040FAC0B2082837D12046294600F03BF937
:101CD000C0B2082830D1204631460A22002300F045
:101CE000A7F9C1B2082927D105F11801204600F053
:101CF0002AF9C0B208281FD16069E0B16168A06903
:101D000088421BD2216805230A5C01320A54288AC2
:101D1000A7F1160207F8140C010A287D07F8120C27
:101D2000688A07F8131C052127F8160C204600F0D6
:101D300041F9C0B200E0072000F0FFB9FEF703FB55
:101D4000FEDE00BF02020200EC280008EF280008B7
:101D50004FF400614FF4FA52C0E909210021C0F8A4
:101D60004011C0E92E11C0F82E10C0F83210C18603
:101D70007047D4D4D0B502AF0C4600F011F800F093
:101D8000FCF903EA5121054B81F0100123FA01F11E
:101D90006140C9B242EA013100F0E0B9020300013A
:101DA00080B56F46C0B208283EBF034941EA8000B3
:101DB00080BD00F0D8F9FEDE005C0040D0B502AF77
:101DC0000C46FFF7EDFF00F0D8F903EA5101064B8E
:101DD00081F0100123FA01F1614001F0030142EAB0
:101DE000011100F0BBB900BF0203000180B56F46CE
:101DF00000F0D4F900F0010080BDD4D400B17047E8
:101E000080B56F4602482B21FEF7CFFAFEDE00BFF9
:101E10008429000880B56F46FFF7C2FF006880BDC7
:101E2000F0B503AF2DE9E00F044608461E461546FF
:101E3000884600F027F88946D7F80CA0D7F808B0F4
:101E400080212A463346CDF804A0CDF800B0FEF735
:101E5000D7F9C0070BD13869207308F1AC00606076
:101E6000002084F80BB0A172A4F808A001E00120C2
:101E700061702070D9F800000130C9F80000BDE899
:101E80000E0FF0BDE0B502AF0146006808B900F0E2
:101E900060B9034801AA034B1021FEF7ADFAFEDE3C
:101EA000BF290008D02900087047F0B503AF2DE91D
:101EB000E00F04460846994616468846FFF7E2FFBB
:101EC0008A46F96801910021D7F808B032464B469E
:101ED000CDF800B00025FEF793F9C00709D1F868E6
:101EE000208108F1AC0084F80BB0A172257360600A
:101EF00001E0012561702570DAF800000130CAF8B0
:101F00000000BDE80E0FF0BDE0B502AF014600686D
:101F100008B900F01EB9034801AA034B1021FEF7CF
:101F20006BFAFEDEBF290008D029000880B56F4695
:101F3000B030FFF7E9FF0278531C037008680130E6
:101F40000860104680BDDCB504AF4269DAB1436871
:101F500082699A4219D203689C5C01349C548A8835
:101F600007F80B2C130A0A7A07F8092CA7F10D02BF
:101F7000C98807F80A3C052327F80D1C052100F045
:101F800019F8C0B2DCBD0720DCBD10461946FEF7CB
:101F9000DAF9FEDED0B502AF0C46994201BF114618
:101FA0002246BDE8D04000F0FEB820461946FEF7B4
:101FB0002DFAFEDEF0B503AF2DE9000B8C4604468A
:101FC000D0E901109046821CD6188E4201D9022019
:101FD00019E088423FBF9946236809F102051D5464
:101FE0003CBF0130884202D3FEF7ADF9FEDE03F8B4
:101FF00000C01846334600F009F842464B46FFF74A
:10200000C9FFA6600820BDE8000BF0BD80B56F4693
:10201000934208D38B429EBF1044991A80BD184644
:10202000FEF7AFF9FEDE10461946FEF7C8F9FEDEF0
:10203000F0B503AF4DF804BD82B0C4680CB3456879
:102040000469AC4220D20568D0F808C007F8142C07
:10205000A7F117022E5D07F8133C072301362E5512
:102060000CF10405012407F8171C0421C0E90545FB
:10207000002427F8124C27F8164CFFF79BFFC0B23C
:1020800000E0072000F059B820462946FEF75BF92A
:10209000FEDED4D40078DFE800F0040A10161C221B
:1020A000282ED1E906010A22CB681D491847D1E93B
:1020B00006010A22CB6819491847D1E906010E2208
:1020C000CB6815491847D1E906011022CB681149A0
:1020D0001847D1E906011622CB680D491847D1E906
:1020E00006010F22CB6809491847D1E906010B22E6
:1020F000CB6805491847D1E906010C22CB68014994
:10210000184700BFE3290008EF290008FA29000852
:10211000092A0008AF2900081F2A00082D2A0008F4
:10212000372A0008044600F02FB8CDE911008020BE
:1021300010900BF160000F90704702B05DF804BB87
:10214000F0BD032307F8146CFFF734BF5DF804BB40
:10215000F0BD4FF0FF32084604C08CBD48F280024B
:1021600011430160D0BD0821FEF7EDB8BBF8540063
:10217000083D00F00D000428704701684FF2F0029E
:10218000182321EA0202704772B6704762B67047A0
:10219000012101EB50000138FDD17047EFF31080B1
:1021A000704730BF704700F002B800F095B800F0FB
:1021B00098B8B0B502AF042A31D3A2F1040C0123C0
:1021C00003EB9C0313F0030E17D00B46044653F8A1
:1021D000045BBEF1010F44F8045B06D120461946AA
:1021E0006246BCF10C0F0BD219E04B68BEF1020F36
:1021F000436018D1083A08310830BCF10C0F0ED3F7
:102200000B68103A0360032A4B6843608B68836055
:10221000CB6801F11001C36000F11000F0D8BDE8F7
:10222000B040FFF7C4BF8B680C3A83600C310C30B0
:10223000BCF10C0FE4D2F2E700F0F7B80B46114600
:102240001A4600F097BAD0B502AF1346D2B20429AD
:1022500039D31404A1F1040E44EA0363012443EAD0
:10226000022304EB9E04134414F003040AD08446B2
:10227000012C4CF8043B0DD160467146BEF10C0FA9
:1022800019D202E0BEF10C0F15D26046BDE8D04075
:10229000FFF7D4BF022C436006D1083908308446CA
:1022A000BEF10C0F07D2F0E783600C390C30844686
:1022B000BEF10C0FE9D31039C0E90033C0E9023395
:1022C00010300329F7D884466046BDE8D040FFF7B8
:1022D000B5BF0022FFF7B2BF0022FFF7B4BFFFF780
:1022E00068BFF0B503AF2DE900070F2A63D9434259
:1022F00013F0030400EB040C16D003460E463578A9
:1023000003F8015B63450FD2757803F8015B634501
:102310003EBFB57803F8015B634505D2F578043616
:1023200003F8015B6345EAD3A2EB040E01EB040959
:102330002EF003080CEB08035FEA89723ED0B8F177
:10234000010F54DB182202EAC90A29F003024FEAFE
:10235000C906764202F10805126806F0180622FA4C
:102360000AF155F8042C02FA06F421434CF8041B38
:102370009C453CD222FA0AF12A6802FA06F421436B
:102380004CF8041B9C453FBF22FA0AF16A6802FA26
:1023900006F421433CBF4CF8041B9C4527D222FA8B
:1023A0000AF1AA68103502FA06F421434CF8041B1E
:1023B0009C45D4D31BE00346F2B933E0B8F1010FDA
:1023C00015DB4C4621684CF8041B9C450FD2616814
:1023D0004CF8041B9C453EBFA1684CF8041B9C456F
:1023E00005D2E16810344CF8041B9C45EAD309EB94
:1023F00008010EF00302AAB11A440E7803F8016B2B
:1024000093420FD24E7803F8016B93423EBF8E7811
:1024100003F8016B934205D2CE78043103F8016BC7
:102420009342EAD3BDE80007F0BDF0B503AF2DE954
:10243000000F86B0431A8246934280F09F8088182E
:102440000AEB020B0F2A40F201811BF00303CDF8C7
:1024500014A02BF0030EC3F1000A049328D0059CAE
:102460000439A4F10209A4F10308A6188D18013E4D
:1024700009EB020395F803C0B64583F801C017D2F3
:10248000AE789E4509F802603FBF6E7803F8016C94
:1024900008EB0206B6450BD28E5C043CA9F1040998
:1024A00003F8026CA318A8F1040804399E45DCD394
:1024B0000499511A049121F003025342AEEB020138
:1024C00000EB0A0201920093920700F0C680B3F17C
:1024D000FF3F00F3C580019A1820DDE9046333440F
:1024E00000EAC20A22F00300A3F10806A3F1040BDC
:1024F0000C3B0293D200A0F11009036850420396EE
:1025000000F01805002603FA05F009EB06030EEBB0
:10251000060CD3F80C8028FA0AF210434CF8040C8D
:102520000BEB0600884240F29B809A6808FA05F09F
:1025300022FA0AF420434CF8080C039830448842ED
:1025400081BF02FA05F05A6822FA0AF3184381BFE4
:102550004CF80C0C02983044884240F2818059F8C3
:10256000063002FA05F0103E23FA0AF210434CF846
:10257000100C0EEB06008842C5D871E00F2A68D90E
:10258000CAF1000010F003050AEB050C16D0534603
:102590000E46307803F8010B63450FD2707803F8CC
:1025A000010B63453EBFB07803F8010B634505D2CC
:1025B000F078043603F8010B6345EAD3A2EB050E6D
:1025C00001EB05092EF003080CEB08035FEA8970A4
:1025D0006DD0B8F1010FC0F28380182000EAC9065F
:1025E00029F003004FEAC90200F1080504685042CF
:1025F00000F0180224FA06F055F8044C04FA02F12F
:1026000008434CF8040B9C456AD224FA06F02C6867
:1026100004FA02F108434CF8040B9C453FBF24FA2E
:1026200006F06C6804FA02F108433CBF4CF8040B56
:102630009C4555D224FA06F0AC68103504FA02F134
:1026400008434CF8040B9C45D4D349E05246594604
:1026500010E05346002A48D15DE0B3F1FF3F5FDD53
:102660000498DDF814A010F0030254D0DDE9000353
:102670008A1A1844831E8C1E5E78214601F8016F69
:102680008A4248D21978A24221703FBF13F8011C38
:10269000254605F8011DAA423DD213F8021C043B51
:1026A00004F8021DA11EA2420C46E5D333E0B8F1A6
:1026B000010F15DB4A4610684CF8040B9C450FD2FD
:1026C00050684CF8040B9C453EBF90684CF8040BD6
:1026D0009C4505D2D06810324CF8040B9C45EAD3D7
:1026E00009EB08010EF00302AAB11A44087803F8B6
:1026F000010B93420FD2487803F8010B93423EBF7F
:10270000887803F8010B934205D2C878043103F8A6
:10271000010B9342EAD3504606B0BDE8000FF0BD6E
:10272000ABF10802A0F11003AAF1040C03EB0A04B8
:102730000BEB0C0502EB0A068D42E06870608FD946
:10274000A0688E4242F80A0081BF606846F8040C17
:10275000A5F1080088427FF683AF53F80A00ABF179
:10276000100B103A46F8080C0BEB0A00103B88429D
:10277000DCD875E7D0B502AF0F2A36D9434213F043
:10278000030E00EB0E0C10D0034603F8011B63454B
:102790000BD203F8011B63453CBF03F8011B6345E3
:1027A00003D203F8011B6345EFD3A2EB0E0E2EF00C
:1027B00003020CEB0203012A13DBCAB24FF001340F
:1027C00062434CF8042B9C450BD24CF8042B9C45DF
:1027D0003CBF4CF8042B9C4503D24CF8042B9C4581
:1027E000EFD30EF0030212B912E0034682B11A448D
:1027F00003F8011B93420BD203F8011B93423CBF29
:1028000003F8011B934203D203F8011B9342EFD359
:10281000D0BDFFF711BDFFF75CBD70460421084233
:1028200002D1EFF3088002E0EFF30980FFE7FEE753
:10283000426F72726F774D75744572726F720000DD
:102840000102000300000000544553546661696CA6
:10285000656420746F20616C6C6F6320636F6E74AD
:10286000726F6C20656E64706F696E745704000837
:10287000010000000100000095200008557362422D
:10288000757320696E697469616C697A6174696FC6
:102890006E206E6F7420636F6D706C65746561730C
:1028A00073657274696F6E206661696C65643A2045
:1028B00073697A65203C205553423A3A45505F4D42
:1028C000454D4F52595F53495A45616C6C6F635F78
:1028D0006570206661696C6564000000F908000895
:1028E0000100000001000000952000080010010216
:1028F00000000000891900084801000004000000E1
:10290000211C0008291A00081F1A0008511D000880
:102910002D1A0008931A00082F1A0008271A000819
:10292000251A00086F1B000846616B6520636F6DF8
:1029300070616E7953657269616C20706F72746139
:102940007373657274696F6E206661696C65643A51
:102950002073656C662E617661696C61626C655F7F
:1029600077726974655F776974686F75745F64699D
:1029700073636172642829203E3D206D61785F6336
:102980006F756E7463616C6C656420604F70746900
:102990006F6E3A3A756E77726170282960206F6E9B
:1029A000206120604E6F6E65602076616C756545B4
:1029B0006E64706F696E744F766572666C6F776166
:1029C0006C726561647920626F72726F7765640002
:1029D000A91E00080000000001000000E703000835
:1029E000000000496E76616C6964537461746555CA
:1029F0006E737570706F72746564496E76616C6920
:102A000064456E64706F696E74456E64706F696E54
:102A1000744D656D6F72794F766572666C6F774233
:102A200075666665724F766572666C6F7750617217
:102A300073654572726F72576F756C64426C6F6329
:042A40006B00000027
:102A44000000000000000000000000000000000082
:102A54000000000000000000000000000000000072
:102A64000000000000000000000000000000000062
:102A74000000000000000000000000000000000052
:102A84000000000000000000000000000000000042
:102A94000000000000000000000000000000000032
:102AA4000000000000000000000000000000000022
:102AB4000000000000000000000000000000000012
:102AC4000000000000000000000000000000000002
:102AD40000000000000000000000000000000000F2
:102AE40000000000000000000000000000000000E2
:102AF40000000000000000000000000000000000D2
:102B040000000000000000000000000000000000C1
:102B140000000000000000000000000000000000B1
:102B240000000000000000000000000000000000A1
:102B34000000000000000000000000000000000091
:102B44000000000000000000000000000000000081
:102B54000000000000000000000000000000000071
:102B64000000000000000000000000000000000061
:102B74000000000000000000000000000000000051
:102B8400030000000000000000000000000000003E
:102B94000000000000000000000000000000000031
:102BA4000000000000000000000000000000000021
:102BB4000000000000000000000000000000000011
:102BC4000000000000000000000000000000000001
:102BD4000000000000000000000000000A000000E7
:102BE40000000000000000000000000000000000E1
:102BF40000000000000000000000000000000000D1
:102C040000000000000000000000000000000000C0
:102C140000000000000000000000000000000000B0
:102C240000000000000000000000000000000000A0
:102C34000000000000000000000000000000000090
:102C44000000000000000000000000000000000080
:102C54000000000000000000000000000000000070
:0C2C640000000000000000000000000064
:0400000508000131BD
:00000001FF
