:020000040800F2
:100000000050002031010008510400084724000876
:1000100051040008510400085104000800000000C9
:100020000000000000000000000000005104000873
:100030005104000800000000510400089D18000849
:10004000510400085104000851040008510400083C
:10005000510400085104000851040008510400082C
:10006000510400085104000851040008510400081C
:10007000510400085104000851040008510400080C
:10008000510400085104000851040008CF1700086B
:10009000E517000851040008510400085104000845
:1000A00051040008510400085104000851040008DC
:1000B000F517000851040008510400085104000815
:1000C00051040008510400085104000851040008BC
:1000D00051040008510400085104000851040008AC
:1000E00051040008510400080000000051040008F9
:1000F000510400085104000851040008510400088C
:10010000510400085104000851040008510400087B
:10011000510400085104000851040008510400086B
:10012000510400085104000851040008510400085B
:1001300080B56F4600F08DF900F06EF900F078F9A7
:1001400001F046FCFEDED0B502AF024601F07F00B2
:10015000072818D800EB8000CCB202EB8000407C6E
:1001600001F05CFA61B2B1F1FF3F06DD00F44050EE
:10017000B0F5805F05D10120D0BD00F0300010281F
:10018000F9D00020D0BD01F0B1FFFEDEF0B503AF25
:100190004DF8048D16460D46044600F0CDF801F0EA
:1001A0009DFF20462946FFF7CEFFB0421AD005F04A
:1001B0007F00072820D800EB800069B204EB8000A4
:1001C000407C1EB1002908D4012103E0B1F1FF3FBA
:1001D00005DD032101F0D2F904E0012100E0022154
:1001E00001F0F0F9B8F1000F5DF8048B0CBFBDE829
:1001F000F040F0BD01F086BF01F078FFFEDED4D400
:10020000F0B503AF4DF804BD84B003F07F040823BC
:10021000002A14BF631C012404EB84053E7AD7F83E
:100220000CC04FEA016E00EB850511359C4217D2D8
:10023000072C76D815F8011C042902D105F8016CA9
:1002400001E0B14209D1BEF1000F03D055F8091CFD
:1002500019B90AE055F8111C49B301341435E5E722
:100260000324002A18BF052444E030491FFA8CF209
:1002700001321E310A4000F1A00101A800F094F9FA
:100280009DF80400A0BB2A4864F07F04DDE9021E4B
:100290002B78284A084440081E019051002045F858
:1002A000091C42EA031145F805EC486023E01F49A8
:1002B0001FFA8CF23F2A07D201321E314FF47C43E1
:1002C00003EA42260A400BE002F11F0303EA01029F
:1002D0004FF4F84101EB431101F4F84101F50046F8
:1002E00000F1A00101A800F05FF99DF8040038B109
:1002F0009DF805400120214604B05DF804BBF0BD27
:100300002A780C4BDDE9020143EA0212084B034450
:100310005B08936045F8110C002045F80D1CD66071
:10032000E9E7204601F0E2FEFEDE00BFE0FF01004B
:1003300000A0FFBF0060004080B56F4601F0ECFEFA
:1003400000F0010080BD80B56F4600F001F8FEDED0
:1003500080B56F4600F07EF8FEDE80B56F4600F097
:1003600001F8FEDE80B56F4600F001F8FEDE80B5D4
:100370006F4600F001F8FEDE80B56F46FFF7E8FF3C
:10038000FEDE80B56F4600F001F8FEDE80B56F46F8
:1003900000F001F8FEDE80B56F4600F001F8FEDEE9
:1003A00080B56F46FFF7D4FFFEDE80B56F46FFF7DE
:1003B000CFFFFEDE80B56F46FFF7CAFFFEDE80B5D9
:1003C0006F4600F001F8FEDE80B56F4600F001F8E0
:1003D000FEDE80B56F4600F001F8FEDE80B56F46A8
:1003E000FFF7B6FFFEDED1E906010E22CB6842F22E
:1003F0005C41C0F60001184780B56F46FFF7A8FFC3
:10040000FEDE80B56F46FFF7A3FFFEDE80B56F46C8
:10041000FFF79EFFFEDED4D4034800220349884242
:1004200028BF704704C0FAE7200000201001002018
:1004300004480549054A904228BF704708C908C0CA
:10044000F9E700BF0000002060260008200000201F
:10045000FEE77047FEE77047D0B502AF04460920BB
:100460002085204600F0E6F8A1790122FFF78EFEF4
:1004700004F10C0000F0CEF8A17C0122BDE8D040D0
:10048000FFF784BE80B56F46934208D38B429EBF70
:100490001044991A80BD1846FFF773FFFEDE104620
:1004A0001946FFF78CFFFEDEF0B503AF4DF804BD33
:1004B00082B0D0E906510446D0E90823002D284631
:1004C00008BF04F13400268A9B1AB34288BF334622
:1004D0001344002D08BF8021FFF7D4FF0B4604F121
:1004E0000C010246684600F0C5F89DF8000078B996
:1004F0000198D4E9081201442162914208D30021F5
:100500000322C4E90611218A884208BF02222285FB
:1005100002B05DF804BBF0BD018D01F00D010429AE
:1005200008BFFFF799BF7047012389B203850023F5
:10053000914238BF0A46C0E90832FFF7B5BFF0B5AF
:1005400003AF4DF804BD0546008D042802D11446C2
:10055000802A02D95DF804BBF0BD05F134000A46DB
:1005600021462346EE8D01F0FBFC2846314622460B
:100570005DF804BBBDE8F040FFF7D6BFDCB504AFC3
:10058000074CB4F85400062809D1064A04F1380192
:100590006846002300F06EF80820A4F85400DCBD83
:1005A000140100206C240008D0B502AF88B012F00E
:1005B000010301931AD10023B3EB522F20D10B6812
:1005C0009C18B4F5007F03D90421417001210AE091
:1005D0000C6051086FF0020202EA43020B4B1A440E
:1005E000C0E901210021017008B0D0BD02AC182182
:1005F000204601F099FD01A8214600F051F9FEDEE8
:1006000003482C21FFF7D1FEFEDE00BF0060004052
:10061000A424000880B56F4600680068BFF35F8FB0
:1006200000B180BD02482221FFF7BFFEFEDE00BF01
:10063000D024000880B56F4600680068BFF35F8F64
:1006400000B180BD02482221FFF7AFFEFEDE00BFF1
:10065000D0240008D0B502AF054C04F12C00FFF700
:10066000E9FF94F832100022BDE8D040FFF78EBDBC
:1006700014010020F0B503AF2DE900070446084639
:10068000994616460D46FFF7C5FFA9794AB2B2F161
:10069000FF3F03DD40F20150208032E001F07F0196
:1006A000082961D201EB810100EB810A00F0A2FF71
:1006B00001F014FD504650F8081F002908BF0846F5
:1006C00000F0A0FF05464068B9EB400F01D90220B9
:1006D00011E01AF8110F00F067FF0068182101EA15
:1006E0005000234980F0100021FA00F0C0B208B198
:1006F00003280FD1002060700120B8F1000F207096
:1007000002D0BDE80007F0BDBDE80007BDE8F0403D
:1007100001F0F8BCD5E9002100204B46012B08D997
:1007200081421DD036F81050023B42F82050013073
:10073000F4E705D1814214D916F8101042F82010C0
:100740009AF800101FFA89F00A4A09015050032153
:100750009AF8000000F036FFC4F804900020CCE7BF
:100760000846FFF7F0FDFEDE08460821F9E700BF66
:100770000203000104600040F0B503AF2DE9800FD3
:10078000444C83469246894604F12C00FFF752FF01
:10079000054694F8320041B2002931D4082874D2B9
:1007A00000EB800605EB860400F024FF01F096FCC8
:1007B00055F82600002818BF204600F023FF064603
:1007C00014F8110F00F0F0FE00681821324A01EA17
:1007D000502181F0100122FA01F1090601D0000434
:1007E00015D400208BF801000120B8F1000F8BF820
:1007F000000009D1BDE8080FBDE8F04001F082BC5F
:1008000040F20150ABF80000BDE8080FF0BD2078C1
:10081000CDF8008000F0C8FE01684FF2F00291436D
:100820001E4A803101602078010152F801806FF387
:100830009F28D04503D9DDF800800220D2E7D6E911
:100840000031A8F101044FEA58050022954208D072
:10085000914216D053F82260023C29F8126001320E
:10086000F4E72CB9914212D953F8221009F812106A
:10087000032100F083FECBF804800020DDF8008027
:10088000B3E70846FFF75FFDFEDE0821FAE71046F2
:10089000F8E700BF14010020020300010C600040D3
:1008A00080B56F4688B002AA91E87850104680E87B
:1008B000785001A96846FFF77DFDFEDEB0B502AFB6
:1008C000D1E90021D0E9003080EA010483EA020581
:1008D0002C4301D10020B0BD9A1A884108D46FF092
:1008E0000041484060EA0200002818BF0120B0BD66
:1008F000FF20B0BDF0B503AF2DE9000F95B0CE4895
:100900004FF40051DFF8B0BA0160DFF8A40A059097
:10091000DFF8A00A0490DBF80040FFF70DFD01F0BE
:10092000DDFBC64E7068C10408D441050FD4010533
:1009300011D4000400F1BD80002510E04EF6FF70D8
:1009400004257060306820F00800306007E04FF642
:10095000FF30012502E04FF2FF7003257060B8F10F
:10096000000F08BF01F0CEFB9BF8E000032811D177
:10097000002D64D0032D62D0FFF7DEFC01F091FB67
:10098000306820F00C0030600CB901F0BBFB002097
:100990008BF8E000DFE805F053036E455300DBF809
:1009A00000B0FFF7C9FC039001F0AAFB7068324663
:1009B0000026DFF814AA56608021D0684FF2FF7934
:1009C0005D4661F30700D060A02E3CD095F8108002
:1009D000B8F1040F22D00BEB0604607C00F0E4FDBC
:1009E0001AF80820016802F0030221EA090141EA2D
:1009F0004221627C02F00F02114401605BF8061094
:100A0000607C002918BF032100F0B8FDA168607C5C
:100A1000002918BF0121490000F0D4FD1435143617
:100A2000D2E7FFF789FC01F03CFB306840F00C0096
:100A300030600CB901F066FB03208BF8E00015B0C4
:100A4000BDE8000FF0BD039808B901F05BFBDFF8CB
:100A500068190020082481F8E300A1F8E000A1F85B
:100A6000540004AD002CEAD0F5E8020189698847FA
:100A7000083CF7E70298039940EA0A0040EA0108B7
:100A80005FEAC87000F02C815FEACA7000F08580D0
:100A9000BBF854000138072800F27D80DFE800F041
:100AA00004505D7B7B7B7B630BF12C00FFF7FCFC30
:100AB00073E0D4F8A410481C80F06884082980F002
:100AC000688401EB8100142111344FF0010B01EB1C
:100AD00080060020039000204FF2F0094FF0000A3A
:100AE000029046B3207800F099FD010409D5010574
:100AF000039948BF41EA0B010391029941EA0B01B6
:100B00000291000612D5FFF717FC054601F0F8FA2E
:100B1000207800F049FD01684AEA0B0A21EA090140
:100B200001F5004101600DB901F0ECFA143E1434F6
:100B30004FEA4B0BD5E7DFF880B802253F4E0EE7B2
:100B4000DFF878280BF138010DA80023FFF792FD9C
:100B500001F0B2FA21D1032002E0FFF77BFD05206E
:100B6000ABF8540019E09BF8E3500020ABF85400B8
:100B70009DB1FFF7E1FB01F094FAF06865F3060020
:100B8000F0600CB901F0BEFA01208BF8E000002003
:100B90008BF8E30001E001F080FA0398C0073CD134
:100BA0000298C00700F09880BBF85400052800F0B8
:100BB0008180072840F08880DBF84C00812880F095
:100BC000EC839BF85F10C0F1800201919BF85E10EE
:100BD00000910BEB00019BF85D5060319BF85C408D
:100BE000BBF85A60DBF856900DA8FFF7C5FD01F081
:100BF00063FA1CD1DBE91301A4460E9A1044DDE927
:100C000000428842CBF84C0066D30620042DABF896
:100C1000540061D048466146C3E00BF160040DA862
:100C200080222146FFF7A8FD01F046FA08D09DF882
:100C3000350000284ED14FE010100140405C0040CC
:100C40000E9B204680210022FFF71CFC082941D181
:100C500001784278019201F01F04042201F080061D
:100C6000042C28BF1446C588D0F80290C1F3411067
:100C70000090FFF7EFFC002E7ED12146009B019CE7
:100C8000002D00F0B0802E46802D23D800208BF858
:100C90005E1007211D468BF85F408BF85D308BF8A6
:100CA0005C00ABF85A60CBF85690ABF85410CBE927
:100CB000130611E0DFF804170DA800220024FFF747
:100CC0005BFDABF8544007E0DFF8F0160DA80022FA
:100CD000FFF752FD01F0E1F94FF6FE7008EA000857
:100CE0005FEA08403DD04FF002094FF0010BBBF125
:100CF000100F36D0039800EA0900000409D004ACB4
:100D00000825ADB1F4E802018A6A59469047083DCA
:100D1000F7E7029800EA0900000409D004AC0825AE
:100D200035B1F4E80201CA6A59469047083DF7E731
:100D300009EA0A0000040BD06BF07F0504AC08261A
:100D400036B1F4E802010A6B29469047083EF7E7FE
:100D500028EA09080BF1010B4FEA49095FEA08404C
:100D6000C5D104AD0824002C3FF469AEF5E80201BA
:100D7000C9698847083CF6E7009B3146019A484616
:100D80008BF85C600426ABF854602E46ABF85A50E2
:100D90001D468BF85F208BF85E408BF85D30CBF8FA
:100DA0005690F1B1802997D1014680208DF81F50CF
:100DB00008258DF821208DF820408DF81E00ADF813
:100DC0001C60069104AE06AC002D57D0F6E8020177
:100DD00022464B6A0BF12C01984701F078F9F3D0C9
:100DE0007AE7814608E00620002622460C461D468A
:100DF000ABF85400CBF8506000208DF83B508DF8D4
:100E00003D2008258DF83C408DF83A00ADF838605B
:100E1000CDF8349004AE0DAC55B1F6E8020122468F
:100E20000B6A0BF12C01984701F051F9F4D053E70C
:100E30009DF83B00002840F012819DF83C209DF871
:100E40003D10BDF83400022A36D0012A3FD0002AD6
:100E500040F00C810139082900F20881DFE811F027
:100E600009000601680006016F000601060106017F
:100E70007600012840F0FA8000205DE09DF81F0018
:100E8000002840F0EC809DF820109DF821000229F8
:100E900024D0012933D0002940F0E18000285ED021
:100EA00006286BD0082840F0DA809BF8E000023872
:100EB000B0FA80F0400927E003292CD0012908BFAF
:100EC000002840F0D380BDF83610002229E00B291D
:100ED00040F0CC80002800F0C080C7E0002840F03F
:100EE000BE805C46BDF81A1054F82C0B01F08F013F
:100EF000FFF729F9ADF834000DA920463AE060B3B8
:100F00000A2840F0AC8000208DF834000BF12C0052
:100F10000DA901222FE0002840F0A880BDF836106E
:100F20000122DBF8000001F08F01FFF72FF994E0B8
:100F3000012840F09B8001208BF8E1008DE0411EEC
:100F40007F2980F093808BF8E30086E000287CD036
:100F5000012840F08B8002207DE0002005E09BF816
:100F6000E1009BF8E21041EA4000ADF834000BF1DB
:100F70002C000DA90222FFF7E2FA70E0BDF818403C
:100F8000200A012877D0022800F0CE80032800F044
:100F90001A810F2840F0C181BBF8540004285ED1AB
:100FA0000020DFF81C248DF850000F21129003233D
:100FB00001F07AF804200B900120BBF85A900A90B7
:100FC0000DA8099000F0DCFFC0B2082847D10E99A7
:100FD0000529C0F0E5810D9A107901301071DDE925
:100FE0000E10C51D8D423AD8884280F0DE8107215F
:100FF0001154421C0E998A4280F0D4810D9910231D
:101000008B54831C0E998B4280F0CE81C21C0D98AC
:101010000221C1542B46DDE90D0100F0DDFFDFF8B0
:10102000A423042300F09CFF0F9504AC09AD08260F
:10103000002E00F09081F4E802010A6929469047E9
:10104000C0B2083E0828F3D009E09BF8E000002871
:1010500000F0638101208BF8E000FFF78FFABBF806
:10106000540000F00D0004287FF436AE0BF12C0084
:10107000FFF752FA30E6BBF854000428EFD1002005
:10108000DBF814208DF850005D461290CDE90F007A
:101090008020DBF80C10002A0E900BF160000D9000
:1010A000BBF85A40DBF80400DBF8223018BF0322FB
:1010B0008DF83220002918BF012149008DF8311028
:1010C000002818BF01208DF83000BBF820008DF8F3
:1010D0002E00010ABBF81E008DF82F10010A8DF8B2
:1010E0002C00BBF81C008DF82D10010A8DF82A0089
:1010F0004FF404708DF82B10ADF824000120CDF8CA
:10110000263001218DF833000DA809AA102300F024
:1011100037FFC0B20828A2D10F9A802A00F22D8191
:101120000BF12C0021462EE1BBF85400042896D187
:10113000BBF85A004FF00009019080200E900BF18F
:1011400060000D900420119001209BF82710109052
:101150009BF826009BF828209BF8293000288DF862
:1011600050206FF03F02CDF84890CDF83C908DF8BC
:101170002A3008BF6FF07F0242EA41108DF8290043
:101180004FF080708DF8289009900DA809AA0221CF
:10119000072300F0F5FEC0B208287FF460AF04AE6C
:1011A0000DAD0824002C00F0BD80D6E90001CA680E
:1011B00029469047C0B208287FF451AFCDF8489037
:1011C000083C0836EEE7E2B2032A1ED858460BF177
:1011D00008010BF10400DFE802F00234292FBBF80C
:1011E000540004287FF43BAF0020BBF85A408DF830
:1011F000500003211290022300F056FF40F20940F4
:10120000ADF824000DA809AA81E7BDF81A9004AD35
:101210000826002E00F08180F5E802014A464B695D
:1012200021469847083E0028F3D00EE058460BF1BF
:1012300010010BF10C0004E058460BF118010BF102
:1012400014000068002868D00968BBF85420042AFC
:101250007FF405AF4FF440720144ABF860200222E6
:1012600001910025BBF85A105B4600911DB14FF06B
:101270000009064632E00199884264D0064616F914
:10128000013BD9B2B3F1FF3F25DC447801F01F03E5
:10129000DF2904F03F0414D98578F02905F03F05D3
:1012A00045EA841411D3C17803F0070301F03F012C
:1012B00041EA841141EA8341B1F5881F43D0061DFC
:1012C00006E044EA8311861C02E044EA0331C61CAE
:1012D000B1F5803F16D28DB24FF000097F2A3FF65C
:1012E000BEAE941C0BF160008021234600F074FE1A
:1012F000ADF834500DAA022300F032FE4D463046C0
:101300002246B3E7A1F580394FF45840372140EA2F
:10131000992061F39F2985B2E0E70BF12C00FFF7DC
:10132000FBF89CE60DAC0222042313CC00F054FE23
:10133000ADF8244009AA022300F012FE0F9A802A79
:101340001BD8019904E0802A8BF8602015D80099F9
:101350000BF12C0017E0099A00200A90042313CA0D
:10136000022200F039FEA7F14E02022327F84E4C6C
:1013700000F0F6FD0F9A802A02D900F08EFE6EE68C
:101380000BF12C004946FFF7CFF868E6FFF739F874
:10139000FEDE0821FEF7F5FFFEDEFEF7DEFFFEDED5
:1013A000042002E0104600E01846FEF7CCFFFEDE07
:1013B000F4240008F8010020140100206C24000827
:1013C000FC250008702400086C24000870470020E9
:1013D000002170477047704708207047704770477A
:1013E00070477047E0B502AF0349024668460323E1
:1013F000FFF740F98CBD00BFF8010020DFB506AF54
:101400000C46D379117A93B1012B15D1012902BF72
:10141000007B518881420FD1507A012824D10020CD
:1014200003228DF80E00ADF80C0003A918E0012985
:1014300004BF507A062800D0DFBD5078222819D08A
:101440002128F9D100F05AFE0020A7F1150107F874
:101450000D0C09220C4847F8110C0C4847F8150CE4
:101460002046FFF76CF8DFBD204604B0BDE8D04051
:10147000FFF752B803492046322204B0BDE8D040FD
:10148000FFF75DB84825000800012232092101015B
:10149000D379012B04BF137A012B06D1007B52882C
:1014A000824204BF0846FFF737B87047F0B503AF74
:1014B0004DF804BD82B00546C868002854D00C46DB
:1014C00049682069884254D22268A368297B165C47
:1014D00007F8171C0421013616541A1D0120072392
:1014E000C4E90502022027F8120C4FF44030A7F19E
:1014F000170247F8160C204600F042FDC0B208283B
:1015000033D10020A7F1170207F8110C43F2222073
:1015100027F8130C21211848072347F8170C2046F9
:1015200000F02EFDC0B208281FD16069E0B16168EB
:10153000A06988421DD2216805230A5C01320A5441
:10154000A888A7F1170207F8150C010A287A07F8EE
:10155000130CE88807F8141C052127F8170C2046FF
:1015600000F00EFDC0B200E0072002B05DF804BB41
:10157000F0BDFEF7E8FEFEDE01010001D0B502AFCE
:101580000C4600F011F800F09BFD03EA5121054BD9
:1015900081F0100123FA01F16140C9B242EA013140
:1015A00000F0A7BD0203000180B56F46C0B2082855
:1015B0003EBF034941EA800080BD00F097FDFEDE9A
:1015C000005C0040D0B502AF0C46FFF7EDFF00F025
:1015D00077FD03EA5101064B81F0100123FA01F176
:1015E000614001F0030142EA011100F082BD00BF39
:1015F0000203000180B56F4600F08EFD00F001008F
:1016000080BDD4D400B1704780B56F4602482B210D
:10161000FEF7CBFEFEDE00BF7A25000880B56F46E0
:10162000FFF7C2FF006880BDB0B502AF07490B8B62
:101630004A8B4B8303EB430301EBC3031C8A0C83EC
:101640001A8293E8360036C0B0BD00BF000000200B
:10165000F0B503AF2DE9E00F00F05EFD00F00104EE
:1016600000F04EFDDFF8489199F8080001280BD1F1
:101670005048D9E904650068C00307D5013645F133
:101680000005C9E9046501E0002600250CB900F059
:1016900039FD16F57A7A45F1000800F091F800F06E
:1016A00000FDD9F82450D9F82860BFF35F8FB54208
:1016B0000AD009F124002844007A01900120A843AF
:1016C000BFF35F8FC9F824000CB900F01BFDB542D1
:1016D00064D000F075F8029000F012FDD9F80C000B
:1016E0004FF6FF7B411CC9F80C10DFF8CC90B9F81D
:1016F0001810594513D001EB410109EBC10259F80B
:1017000031305268BAEB030183EA0A0368EB020145
:1017100082EA08021A4306D0B1F1FF3F03DC2749F1
:101720004FF080620A60B9F81A104C46009101EB44
:10173000410109EBC10549F831A0C5E90180A8467E
:1017400034F8186F019938F8100F2973A9F81A00A6
:101750005E4502D1DDF800A01AE000F097FCC0B2AF
:10176000FF2804D0DDF800A009F118040EE0DDF830
:1017700000A006EB460009EBC00434F8106F5E458C
:1017800006D000F083FCC0B2FF28F2D0B4F800B05D
:101790000298A8F800B0A4F800A010B1BDE80E0FA0
:1017A000F0BDBDE80E0FBDE8F04000F0ABBC00BFDF
:1017B000E000002010E000E00000002004ED00E068
:1017C00080B56F4600F0A8FC00F0010080BD80B538
:1017D0006F46FFF78FF8BDE8804000F000B80020AA
:1017E00000F09DBC80B56F46FFF784F8BDE88040EF
:1017F000FFF7F5BFF0B503AF2DE9E00F24480DF179
:101800000409244C0125244E4FF0000B82464FF46E
:10181000C848A069E169BFF35F8F884232D004F104
:101820001801014425EA0000097ABFF35F8FA06127
:10183000A06A221825EA000082F82C10BFF35F8FFF
:10184000A062307810F0010080F0010030700BD100
:101850004FF000514FF41C40CAF800108DF80AB048
:10186000ADF8080002A808E04FF400514846CAF855
:1018700000108DF806B0ADF80480FFF7B3FDFFF758
:10188000E7FEC6E7BDE80E0FBDE8F040FFF7A7BFD3
:1018900010100140E000002010010020F0B503AF5F
:1018A0002DE9F80F484C494EFFF78AFF834600F0B8
:1018B00027FC208B4FF6FF71884245D000EB40019A
:1018C000A146D6E9043254F8310004EBC1013D4C85
:1018D00049682468E40304D5013342F10002C6E9F3
:1018E000043280EA030481EA0206344322D0C41A97
:1018F00071EB02061ED46FF000456E4066EA0404E8
:10190000C4B1304C2468E40305D5304C013342F1B6
:101910000002C4E9043280EA030481EA0206344387
:1019200008D0C01A914105D46FF00042514061EADD
:10193000000058BB6846FFF777FE9DF80C804FF01B
:10194000010A224E4C4601E04FF0000ABBF1000FA5
:1019500008BF00F0D7FBFFF733FF054600F0D0FBD0
:10196000BAF1000F15D0F069311881F820800121FB
:1019700021EA0000BFF35F8FF0610DB900F0C2FBF8
:1019800010484FF08051C0F8F0118DE74FF0000A79
:10199000D7E7307A01280AD10A480068C00306D583
:1019A000D6E90401013041F10001C6E90401002D2E
:1019B00005B0BDE8000F0CBFBDE8F040F0BD00F081
:1019C000A1BB00BF10E000E000000020E00000200C
:1019D00080B56F4600F094FB194900200122D20720
:1019E0000BD08A6A8B1883F82C00012020EA0202AF
:1019F000BFF35F8F8A620022F1E70F48F0210F4AA0
:101A00004FF080534172C2F8F0304FF40023017060
:101A1000C2F8F03041704FF48011C2F8F01000218C
:101A200080F81019106840F00200106000F00AF809
:101A300000F070FBFCE700BF13E400E010E000E002
:101A4000E0000020F0B503AF2DE9000FB9B0DFF8DA
:101A50000C140120F14DF24C0870F248016841F07D
:101A600080710160F048F149C0F8B01F016841F091
:101A700001010160EE49086820F001000860086873
:101A800040F0040008604BF67F3048604FF0005192
:101A9000A86940F00400A861E86840F00400E8602C
:101AA000E86820F00400E860A86940F00800A86138
:101AB000E86840F00800E860E86820F00800E860A6
:101AC000A86940F01000A861E86840F01000E860E4
:101AD000E86820F01000E860A86940F00100A86103
:101AE000E86840F00100E860E86820F00100E86084
:101AF000DC4801600321D4F8000861F31750C4F8F2
:101B00000008D94831210160286840F480302860FD
:101B100028688003FCD5686820F4741000F58810EC
:101B20006860286840F08070286028688001FCD5D3
:101B300068680322CD490840CD49084368604FF0EA
:101B40008050E060216862F313412160E0604BF651
:101B5000803000F0D9FA2068042666F31340206034
:101B600000F0DAFA00F09DFAE86940F40000E8615C
:101B7000286940F400002861286920F400002861E9
:101B8000E00708BF00F0BEFA0DA8002110300022C7
:101B9000082A08D04270013240E9041140E90211DC
:101BA00006701430F4E7B34E0DA9A02206F1080028
:101BB00000F052FB4FF480600021C6F8B8004020CE
:101BC000C6E92A0101203060304640F8B41F35468E
:101BD000C6F8B01045F8041F00F0B0F990F8009076
:101BE00009F10102027008680322013008600A202E
:101BF0000821CDE90021294602900DAC00222046A3
:101C000000F056F900F058FA40F01481201D0DF153
:101C1000280A90E81C0051461CC13068002800F0DA
:101C20000E8106F1040B584600F074F90C464FF093
:101C300008080025002101220023CDE90058FEF705
:101C4000DFFA0591216801312160C00740F0FC8076
:101C5000CDF810A05946CDE90058012202950DACEF
:101C60008023204600F024F900F026FA40F0EF80AF
:101C7000201D0DF1D80A90E81C0006F1B400514671
:101C80001CC100F05BF9584600F044F9884600F1A9
:101C9000A00100230446002294468C420DD01A462F
:101CA000236825462BB9AE68531C05F11404002E99
:101CB000F3D0531C05F11404EEE7CDF80C90C0F8F6
:101CC000A4C0FEF739FB064600F01AFA6E4C2068F5
:101CD00020F002002060482000F016FA20694FF63C
:101CE000F8714FF0000988432061206840F41C40DF
:101CF00020F0010020606068C4F804900EB900F084
:101D000001FAD8F800000130C8F80000584600F089
:101D100001F9584CBFF35F8F83460DF11808C4F8E2
:101D2000B000BFF35F8F9DF8D6008DF82600BDF898
:101D3000D400ADF8240040469AE80E000EC00DAC69
:101D400004F10A00802100F07CFBFFF781FC4F4D7D
:101D50002146BDF8D4008A22688505F1560000F0BE
:101D6000E1F9049C4A4E94E80E0030460EC09DF8FE
:101D7000DA00F073BDF8D800A6F80D00BDF8240015
:101D8000A5F835009DF8260085F8370005F13800E4
:101D900098E80E000EC0122105F1440000F0C4F9CD
:101DA0003C480C223F494FF0150C3F4C052380F86E
:101DB0000090059885F83200082028862D48DFF825
:101DC000E0E0B030E8624FF04850C5E90221C5F8C4
:101DD00026003148C5F82200102028842F482049C9
:101DE000C5F8E090C5E906C00398A5F83390C5E9A9
:101DF00000B4C5E9043E3073C1F80890086840F0AB
:101E00000100086015490120C1E90499087239B040
:101E1000BDE8000FBDE8F04000F074B900100240CA
:101E200004080140FCED00E0001000E055CEACC518
:101E300010E000E0104836AA104B0F210BE01B48C1
:101E40002B21FEF7B2FAFEDE0D480DAA01E00C4888
:101E500036AA0C4B2021FEF7CFFAFEDEE000002070
:101E600010E000E010100140002002400C00BFFF15
:101E700072DC4000200000202825000838250008DA
:101E80007424000894240008405C004014010020E1
:101E9000F80100201001002003000008C016DD2713
:101EA000B6250008B1250008A52500087A250008F8
:101EB000F0B503AF2DE9E00F044608461E4615466F
:101EC000884600F027F88946D7F80CA0D7F808B064
:101ED00080212A463346CDF804A0CDF800B0FEF7A5
:101EE0008FF9C0070BD13869207308F1AC0060602E
:101EF000002084F80BB0A172A4F808A001E0012032
:101F000061702070D9F800000130C9F80000BDE808
:101F10000E0FF0BDE0B502AF0146006808B900F051
:101F2000E0B8034801AA034B1021FEF765FAFEDE74
:101F3000DB250008EC2500087047D4D4E0B502AFDB
:101F40000146006808B900F0CCB8034801AA034B69
:101F50001021FEF751FAFEDEDB250008EC25000813
:101F6000D0B502AF0C46994201BF11462246BDE8EA
:101F7000D04000F0D7B820461946FEF747FAFEDEFB
:101F8000F0B503AF2DE9000B8C460446D0E90110F3
:101F90009046821CD6188E4201D9022019E0884250
:101FA0003FBF9946236809F102051D543CBF01302B
:101FB000884202D3FEF7C7F9FEDE03F800C01846D8
:101FC000334600F009F842464B46FFF7C9FFA660CA
:101FD0000820BDE8000BF0BD80B56F46934208D3E2
:101FE0008B429EBF1044991A80BD1846FEF7C9F96E
:101FF000FEDE10461946FEF7E2F9FEDE0078DFE865
:1020000000F0040A10161C22282ED1E906010A222B
:10201000CB681D491847D1E906010A22CB68194946
:102020001847D1E906010E22CB6815491847D1E9B6
:1020300006011022CB6811491847D1E90601162282
:10204000CB680D491847D1E906010F22CB68094931
:102050001847D1E906010B22CB6805491847D1E999
:1020600006010C22CB680149184700BFFF25000874
:102070000B2600081626000825260008CB25000898
:102080003B260008492600085326000806EB4600B8
:10209000294609EBC000FEF711BC0BF12C00FEF73E
:1020A000DBB9044600F02CB8CDE90F0080200E907B
:1020B0000BF160000D9070479DF8340000287047C8
:1020C00001684FF2F002182321EA02027047BBF8C0
:1020D0005400083D00F00D0004287047804600F0D1
:1020E0000FB84FF0FF32084604C08CBD0821FEF740
:1020F0002AB948F2800211430160D0BD00BE70478A
:1021000072B6704762B67047012101EB500001388A
:10211000FDD1704700BF7047EFF31080704780F328
:102120001188704700F002B800F093B800F096B83C
:10213000B0B502AF042A31D3A2F1040C012303EBA2
:102140009C0313F0030E17D00B46044653F8045BB0
:10215000BEF1010F44F8045B06D1204619466246E1
:10216000BCF10C0F0BD219E04B68BEF1020F4360BB
:1021700018D1083A08310830BCF10C0F0ED30B68A7
:10218000103A0360032A4B6843608B688360CB6816
:1021900001F11001C36000F11000F0D8BDE8B040BB
:1021A000FFF7C4BF8B680C3A83600C310C30BCF174
:1021B0000C0FE4D2F2E70B4611461A4600F0F2B8D3
:1021C000D0B502AF1346D2B2042939D31404A1F119
:1021D000040E44EA0363012443EA022304EB9E0451
:1021E000134414F003040AD08446012C4CF8043B39
:1021F0000DD160467146BEF10C0F19D202E0BEF15E
:102200000C0F15D26046BDE8D040FFF7D4BF022CBA
:10221000436006D1083908308446BEF10C0F07D25E
:10222000F0E783600C390C308446BEF10C0FE9D323
:102230001039C0E90033C0E9023310300329F7D860
:1022400084466046BDE8D040FFF7B5BF0022FFF7E7
:10225000B2BF0022FFF7B4BFFFF76ABFF0B503AF0C
:102260002DE900070F2A63D9434213F0030400EB62
:10227000040C16D003460E46357803F8015B63451F
:102280000FD2757803F8015B63453EBFB57803F85C
:10229000015B634505D2F578043603F8015B6345BD
:1022A000EAD3A2EB040E01EB04092EF003080CEBB9
:1022B00008035FEA89723ED0B8F1010F54DB18229F
:1022C00002EAC90A29F003024FEAC906764202F17E
:1022D0000805126806F0180622FA0AF155F8042CCF
:1022E00002FA06F421434CF8041B9C453CD222FA26
:1022F0000AF12A6802FA06F421434CF8041B9C45B3
:102300003FBF22FA0AF16A6802FA06F421433CBF91
:102310004CF8041B9C4527D222FA0AF1AA68103512
:1023200002FA06F421434CF8041B9C45D4D31BE06D
:102330000346F2B933E0B8F1010F15DB4C462168D2
:102340004CF8041B9C450FD261684CF8041B9C455B
:102350003EBFA1684CF8041B9C4505D2E1681034CF
:102360004CF8041B9C45EAD309EB08010EF003026C
:10237000AAB11A440E7803F8016B93420FD24E783B
:1023800003F8016B93423EBF8E7803F8016B9342D2
:1023900005D2CE78043103F8016B9342EAD3BDE84D
:1023A0000007F0BDD0B502AF0F2A36D9434213F073
:1023B000030E00EB0E0C10D0034603F8011B63451F
:1023C0000BD203F8011B63453CBF03F8011B6345B7
:1023D00003D203F8011B6345EFD3A2EB0E0E2EF0E0
:1023E00003020CEB0203012A13DBCAB24FF00134E3
:1023F00062434CF8042B9C450BD24CF8042B9C45B3
:102400003CBF4CF8042B9C4503D24CF8042B9C4554
:10241000EFD30EF0030212B912E0034682B11A4460
:1024200003F8011B93420BD203F8011B93423CBFFC
:1024300003F8011B934203D203F8011B9342EFD32D
:10244000D0BDFFF703BF70460421084202D1EFF36D
:0C245000088002E0EFF30980FFE7FEE7E0
:10245C00426F72726F774D75744572726F720000B5
:10246C0001020003000000006661696C6564207461
:10247C006F20616C6C6F6320636F6E74726F6C2075
:10248C00656E64706F696E7457040008010000007B
:10249C0001000000FD1F0008617373657274696FA1
:1024AC006E206661696C65643A2073697A65203CBC
:1024BC00205553423A3A45505F4D454D4F52595F66
:1024CC0053495A4555736242757320696E69746934
:1024DC00616C697A6174696F6E206E6F7420636FC2
:1024EC006D706C6574650000CD1300081000000061
:1024FC0004000000AD140008D9130008CF13000825
:10250C00E1130008DF13000891140008FD13000804
:10251C00D7130008D5130008DD130008616C6C6F2D
:10252C00635F6570206661696C656400E313000885
:10253C000100000001000000FD1F00080501090258
:10254C00A1010901A10005091901290315002501A3
:10255C00950375018102950175058103050109300B
:10256C0009311581257F750895028106C0C063610C
:10257C006C6C656420604F7074696F6E3A3A756E5E
:10258C0077726170282960206F6E206120604E6F19
:10259C006E65602076616C756546616B6520636F56
:1025AC006D70616E796D6F757365544573646B6195
:1025BC0073393864733961646A736D61647361452E
:1025CC006E64706F696E744F766572666C6F77614E
:1025DC006C726561647920626F72726F77656400EA
:1025EC00391F00080000000001000000E70300088C
:1025FC00000000496E76616C6964537461746555B2
:10260C006E737570706F72746564496E76616C6907
:10261C0064456E64706F696E74456E64706F696E3C
:10262C00744D656D6F72794F766572666C6F77421B
:10263C0075666665724F766572666C6F77506172FF
:10264C0073654572726F72576F756C64426C6F6311
:04265C006B0000000F
:10266000000000000000000000000000000000006A
:10267000FFFF000000000000FFFF0000000000005E
:0400000508000131BD
:00000001FF
